{
  "_format": "hh-sol-artifact-1",
  "contractName": "NearEscrowFactory",
  "sourceName": "contracts/NearEscrowFactory.sol",
  "abi": [
    {
      "inputs": [
        {
          "internalType": "contract IERC20",
          "name": "accessToken",
          "type": "address"
        },
        {
          "internalType": "address",
          "name": "owner",
          "type": "address"
        },
        {
          "internalType": "uint32",
          "name": "rescueDelaySrc",
          "type": "uint32"
        },
        {
          "internalType": "uint32",
          "name": "rescueDelayDst",
          "type": "uint32"
        },
        {
          "internalType": "uint256",
          "name": "_creationFee",
          "type": "uint256"
        },
        {
          "internalType": "address",
          "name": "_treasury",
          "type": "address"
        },
        {
          "components": [
            {
              "internalType": "uint256",
              "name": "minConfirmations",
              "type": "uint256"
            },
            {
              "internalType": "uint256",
              "name": "dustThreshold",
              "type": "uint256"
            },
            {
              "internalType": "uint256",
              "name": "maxAmount",
              "type": "uint256"
            }
          ],
          "internalType": "struct NearEscrowFactory.Config",
          "name": "_NearConfig",
          "type": "tuple"
        }
      ],
      "stateMutability": "nonpayable",
      "type": "constructor"
    },
    {
      "inputs": [],
      "name": "Create2EmptyBytecode",
      "type": "error"
    },
    {
      "inputs": [],
      "name": "FailedDeployment",
      "type": "error"
    },
    {
      "inputs": [],
      "name": "FeeTransferFailed",
      "type": "error"
    },
    {
      "inputs": [
        {
          "internalType": "uint256",
          "name": "balance",
          "type": "uint256"
        },
        {
          "internalType": "uint256",
          "name": "needed",
          "type": "uint256"
        }
      ],
      "name": "InsufficientBalance",
      "type": "error"
    },
    {
      "inputs": [],
      "name": "InsufficientEscrowBalance",
      "type": "error"
    },
    {
      "inputs": [],
      "name": "InvalidFeeAmount",
      "type": "error"
    },
    {
      "inputs": [],
      "name": "InvalidNearAddress",
      "type": "error"
    },
    {
      "inputs": [],
      "name": "InvalidNearAmount",
      "type": "error"
    },
    {
      "inputs": [
        {
          "internalType": "address",
          "name": "owner",
          "type": "address"
        }
      ],
      "name": "OwnableInvalidOwner",
      "type": "error"
    },
    {
      "inputs": [
        {
          "internalType": "address",
          "name": "account",
          "type": "address"
        }
      ],
      "name": "OwnableUnauthorizedAccount",
      "type": "error"
    },
    {
      "inputs": [
        {
          "internalType": "address",
          "name": "token",
          "type": "address"
        }
      ],
      "name": "SafeERC20FailedOperation",
      "type": "error"
    },
    {
      "anonymous": false,
      "inputs": [
        {
          "indexed": false,
          "internalType": "uint256",
          "name": "oldFee",
          "type": "uint256"
        },
        {
          "indexed": false,
          "internalType": "uint256",
          "name": "newFee",
          "type": "uint256"
        }
      ],
      "name": "CreationFeeUpdated",
      "type": "event"
    },
    {
      "anonymous": false,
      "inputs": [
        {
          "indexed": false,
          "internalType": "address",
          "name": "escrow",
          "type": "address"
        },
        {
          "indexed": false,
          "internalType": "bytes32",
          "name": "hashlock",
          "type": "bytes32"
        },
        {
          "indexed": false,
          "internalType": "Address",
          "name": "taker",
          "type": "uint256"
        },
        {
          "indexed": true,
          "internalType": "address",
          "name": "creator",
          "type": "address"
        }
      ],
      "name": "DstEscrowCreated",
      "type": "event"
    },
    {
      "anonymous": false,
      "inputs": [
        {
          "components": [
            {
              "internalType": "uint256",
              "name": "minConfirmations",
              "type": "uint256"
            },
            {
              "internalType": "uint256",
              "name": "dustThreshold",
              "type": "uint256"
            },
            {
              "internalType": "uint256",
              "name": "maxAmount",
              "type": "uint256"
            }
          ],
          "indexed": false,
          "internalType": "struct NearEscrowFactory.Config",
          "name": "config",
          "type": "tuple"
        }
      ],
      "name": "NearConfigUpdated",
      "type": "event"
    },
    {
      "anonymous": false,
      "inputs": [
        {
          "indexed": true,
          "internalType": "address",
          "name": "previousOwner",
          "type": "address"
        },
        {
          "indexed": true,
          "internalType": "address",
          "name": "newOwner",
          "type": "address"
        }
      ],
      "name": "OwnershipTransferred",
      "type": "event"
    },
    {
      "anonymous": false,
      "inputs": [
        {
          "indexed": false,
          "internalType": "address",
          "name": "escrow",
          "type": "address"
        },
        {
          "indexed": false,
          "internalType": "bytes32",
          "name": "hashlock",
          "type": "bytes32"
        },
        {
          "indexed": false,
          "internalType": "Address",
          "name": "maker",
          "type": "uint256"
        },
        {
          "indexed": true,
          "internalType": "address",
          "name": "creator",
          "type": "address"
        }
      ],
      "name": "SrcEscrowCreated",
      "type": "event"
    },
    {
      "anonymous": false,
      "inputs": [
        {
          "indexed": false,
          "internalType": "address",
          "name": "oldTreasury",
          "type": "address"
        },
        {
          "indexed": false,
          "internalType": "address",
          "name": "newTreasury",
          "type": "address"
        }
      ],
      "name": "TreasuryUpdated",
      "type": "event"
    },
    {
      "inputs": [],
      "name": "ACCESS_TOKEN",
      "outputs": [
        {
          "internalType": "contract IERC20",
          "name": "",
          "type": "address"
        }
      ],
      "stateMutability": "view",
      "type": "function"
    },
    {
      "inputs": [],
      "name": "NearConfig",
      "outputs": [
        {
          "internalType": "uint256",
          "name": "minConfirmations",
          "type": "uint256"
        },
        {
          "internalType": "uint256",
          "name": "dustThreshold",
          "type": "uint256"
        },
        {
          "internalType": "uint256",
          "name": "maxAmount",
          "type": "uint256"
        }
      ],
      "stateMutability": "view",
      "type": "function"
    },
    {
      "inputs": [],
      "name": "Near_ESCROW_DST_IMPLEMENTATION",
      "outputs": [
        {
          "internalType": "address",
          "name": "",
          "type": "address"
        }
      ],
      "stateMutability": "view",
      "type": "function"
    },
    {
      "inputs": [],
      "name": "Near_ESCROW_SRC_IMPLEMENTATION",
      "outputs": [
        {
          "internalType": "address",
          "name": "",
          "type": "address"
        }
      ],
      "stateMutability": "view",
      "type": "function"
    },
    {
      "inputs": [
        {
          "components": [
            {
              "internalType": "bytes32",
              "name": "orderHash",
              "type": "bytes32"
            },
            {
              "internalType": "bytes32",
              "name": "hashlock",
              "type": "bytes32"
            },
            {
              "internalType": "Address",
              "name": "maker",
              "type": "uint256"
            },
            {
              "internalType": "Address",
              "name": "taker",
              "type": "uint256"
            },
            {
              "internalType": "Address",
              "name": "token",
              "type": "uint256"
            },
            {
              "internalType": "uint256",
              "name": "amount",
              "type": "uint256"
            },
            {
              "internalType": "uint256",
              "name": "safetyDeposit",
              "type": "uint256"
            },
            {
              "internalType": "Timelocks",
              "name": "timelocks",
              "type": "uint256"
            }
          ],
          "internalType": "struct IBaseEscrow.Immutables",
          "name": "immutables",
          "type": "tuple"
        }
      ],
      "name": "addressOfEscrowDst",
      "outputs": [
        {
          "internalType": "address",
          "name": "",
          "type": "address"
        }
      ],
      "stateMutability": "view",
      "type": "function"
    },
    {
      "inputs": [
        {
          "components": [
            {
              "internalType": "bytes32",
              "name": "orderHash",
              "type": "bytes32"
            },
            {
              "internalType": "bytes32",
              "name": "hashlock",
              "type": "bytes32"
            },
            {
              "internalType": "Address",
              "name": "maker",
              "type": "uint256"
            },
            {
              "internalType": "Address",
              "name": "taker",
              "type": "uint256"
            },
            {
              "internalType": "Address",
              "name": "token",
              "type": "uint256"
            },
            {
              "internalType": "uint256",
              "name": "amount",
              "type": "uint256"
            },
            {
              "internalType": "uint256",
              "name": "safetyDeposit",
              "type": "uint256"
            },
            {
              "internalType": "Timelocks",
              "name": "timelocks",
              "type": "uint256"
            }
          ],
          "internalType": "struct IBaseEscrow.Immutables",
          "name": "immutables",
          "type": "tuple"
        }
      ],
      "name": "addressOfEscrowSrc",
      "outputs": [
        {
          "internalType": "address",
          "name": "",
          "type": "address"
        }
      ],
      "stateMutability": "view",
      "type": "function"
    },
    {
      "inputs": [
        {
          "components": [
            {
              "internalType": "bytes32",
              "name": "orderHash",
              "type": "bytes32"
            },
            {
              "internalType": "bytes32",
              "name": "hashlock",
              "type": "bytes32"
            },
            {
              "internalType": "Address",
              "name": "maker",
              "type": "uint256"
            },
            {
              "internalType": "Address",
              "name": "taker",
              "type": "uint256"
            },
            {
              "internalType": "Address",
              "name": "token",
              "type": "uint256"
            },
            {
              "internalType": "uint256",
              "name": "amount",
              "type": "uint256"
            },
            {
              "internalType": "uint256",
              "name": "safetyDeposit",
              "type": "uint256"
            },
            {
              "internalType": "Timelocks",
              "name": "timelocks",
              "type": "uint256"
            }
          ],
          "internalType": "struct IBaseEscrow.Immutables",
          "name": "immutables",
          "type": "tuple"
        }
      ],
      "name": "createDstEscrow",
      "outputs": [],
      "stateMutability": "payable",
      "type": "function"
    },
    {
      "inputs": [
        {
          "components": [
            {
              "internalType": "bytes32",
              "name": "orderHash",
              "type": "bytes32"
            },
            {
              "internalType": "bytes32",
              "name": "hashlock",
              "type": "bytes32"
            },
            {
              "internalType": "Address",
              "name": "maker",
              "type": "uint256"
            },
            {
              "internalType": "Address",
              "name": "taker",
              "type": "uint256"
            },
            {
              "internalType": "Address",
              "name": "token",
              "type": "uint256"
            },
            {
              "internalType": "uint256",
              "name": "amount",
              "type": "uint256"
            },
            {
              "internalType": "uint256",
              "name": "safetyDeposit",
              "type": "uint256"
            },
            {
              "internalType": "Timelocks",
              "name": "timelocks",
              "type": "uint256"
            }
          ],
          "internalType": "struct IBaseEscrow.Immutables",
          "name": "immutables",
          "type": "tuple"
        }
      ],
      "name": "createSrcEscrow",
      "outputs": [],
      "stateMutability": "payable",
      "type": "function"
    },
    {
      "inputs": [],
      "name": "creationFee",
      "outputs": [
        {
          "internalType": "uint256",
          "name": "",
          "type": "uint256"
        }
      ],
      "stateMutability": "view",
      "type": "function"
    },
    {
      "inputs": [],
      "name": "owner",
      "outputs": [
        {
          "internalType": "address",
          "name": "",
          "type": "address"
        }
      ],
      "stateMutability": "view",
      "type": "function"
    },
    {
      "inputs": [],
      "name": "renounceOwnership",
      "outputs": [],
      "stateMutability": "nonpayable",
      "type": "function"
    },
    {
      "inputs": [
        {
          "internalType": "uint256",
          "name": "newFee",
          "type": "uint256"
        }
      ],
      "name": "setCreationFee",
      "outputs": [],
      "stateMutability": "nonpayable",
      "type": "function"
    },
    {
      "inputs": [
        {
          "components": [
            {
              "internalType": "uint256",
              "name": "minConfirmations",
              "type": "uint256"
            },
            {
              "internalType": "uint256",
              "name": "dustThreshold",
              "type": "uint256"
            },
            {
              "internalType": "uint256",
              "name": "maxAmount",
              "type": "uint256"
            }
          ],
          "internalType": "struct NearEscrowFactory.Config",
          "name": "newConfig",
          "type": "tuple"
        }
      ],
      "name": "setNearConfig",
      "outputs": [],
      "stateMutability": "nonpayable",
      "type": "function"
    },
    {
      "inputs": [
        {
          "internalType": "address",
          "name": "newTreasury",
          "type": "address"
        }
      ],
      "name": "setTreasury",
      "outputs": [],
      "stateMutability": "nonpayable",
      "type": "function"
    },
    {
      "inputs": [
        {
          "internalType": "address",
          "name": "newOwner",
          "type": "address"
        }
      ],
      "name": "transferOwnership",
      "outputs": [],
      "stateMutability": "nonpayable",
      "type": "function"
    },
    {
      "inputs": [],
      "name": "treasury",
      "outputs": [
        {
          "internalType": "address",
          "name": "",
          "type": "address"
        }
      ],
      "stateMutability": "view",
      "type": "function"
    }
  ],
  "bytecode": "0x6101206040523480156200001257600080fd5b50604051620035333803806200353383398101604081905262000035916200030b565b856001600160a01b0381166200006557604051631e4fbdf760e01b81526000600482015260240160405180910390fd5b62000070816200026c565b506001600160a01b03878116610100526001849055600280546001600160a01b031916918416919091179055805160035560208101516004556040808201516005555185908890620000c290620002bc565b63ffffffff90921682526001600160a01b03166020820152604001604051809103906000f080158015620000fa573d6000803e3d6000fd5b506001600160a01b0316608052604051849088906200011990620002ca565b63ffffffff90921682526001600160a01b03166020820152604001604051809103906000f08015801562000151573d6000803e3d6000fd5b506001600160a01b031660a052608051620001db90604080517f3d602d80600a3d3981f3363d3d373d3d3d363d7300000000000000000000000060208083019190915260609390931b6001600160601b03191660348201526e5af43d82803e903d91602b57fd5bf360881b6048820152815160378183030181526057909101909152805191012090565b60c05260a0516200025b90604080517f3d602d80600a3d3981f3363d3d373d3d3d363d7300000000000000000000000060208083019190915260609390931b6001600160601b03191660348201526e5af43d82803e903d91602b57fd5bf360881b6048820152815160378183030181526057909101909152805191012090565b60e05250620003fa95505050505050565b600080546001600160a01b038381166001600160a01b0319831681178455604051919092169283917f8be0079c531659141344cd1fd0a4f28419497f9722a3daafe3b4186f6b6457e09190a35050565b6111d6806200115183390190565b61120c806200232783390190565b6001600160a01b0381168114620002ee57600080fd5b50565b805163ffffffff811681146200030657600080fd5b919050565b60008060008060008060008789036101208112156200032957600080fd5b88516200033681620002d8565b60208a01519098506200034981620002d8565b96506200035960408a01620002f1565b95506200036960608a01620002f1565b94506080890151935060a08901516200038281620002d8565b9250606060bf19820112156200039757600080fd5b50604051606081016001600160401b0381118282101715620003c957634e487b7160e01b600052604160045260246000fd5b806040525060c0890151815260e0890151602082015261010089015160408201528091505092959891949750929550565b60805160a05160c05160e05161010051610cef62000462600039600061017d01526000818161041e01526105650152600081816106000152818161077f015261080101526000818161012c01526108280152600081816101c4015261084e0152610cef6000f3fe6080604052600436106100f35760003560e01c806392ea99941161008a578063dce0b4e411610059578063dce0b4e4146102c6578063f0f44260146102ea578063f2fde38b1461030a578063fb6bd47e1461032a57600080fd5b806392ea999414610239578063b7d8622514610273578063be58e91c14610293578063c3a28841146102b357600080fd5b806360ecd222116100c657806360ecd222146101b257806361d027b3146101e6578063715018a6146102065780638da5cb5b1461021b57600080fd5b80632857a1fc146100f85780632f84d1c31461011a5780633eb5002a1461016b5780634579d04b1461019f575b600080fd5b34801561010457600080fd5b50610118610113366004610b8d565b61034a565b005b34801561012657600080fd5b5061014e7f000000000000000000000000000000000000000000000000000000000000000081565b6040516001600160a01b0390911681526020015b60405180910390f35b34801561017757600080fd5b5061014e7f000000000000000000000000000000000000000000000000000000000000000081565b6101186101ad366004610ba5565b6103b0565b3480156101be57600080fd5b5061014e7f000000000000000000000000000000000000000000000000000000000000000081565b3480156101f257600080fd5b5060025461014e906001600160a01b031681565b34801561021257600080fd5b506101186104d1565b34801561022757600080fd5b506000546001600160a01b031661014e565b34801561024557600080fd5b5060035460045460055461025892919083565b60408051938452602084019290925290820152606001610162565b34801561027f57600080fd5b5061011861028e366004610bb8565b6104e5565b34801561029f57600080fd5b5061014e6102ae366004610ba5565b610533565b6101186102c1366004610ba5565b610592565b3480156102d257600080fd5b506102dc60015481565b604051908152602001610162565b3480156102f657600080fd5b50610118610305366004610bd1565b6106a8565b34801561031657600080fd5b50610118610325366004610bd1565b61070a565b34801561033657600080fd5b5061014e610345366004610ba5565b61074d565b6103526107a4565b803560038190556020808301356004819055604080850135600581905581519485529284019190915282810191909152517ff17f367a4a53f642787956e990c5a85f656652cc64a252f47abae36213ca79259181900360600190a150565b608081013560006001600160a01b038216156103d0578260c001356103e2565b6103e260c084013560a0850135610bfa565b90506000600154826103f49190610bfa565b9050803414610416576040516334f5151d60e01b815260040160405180910390fd5b6000610443857f0000000000000000000000000000000000000000000000000000000000000000856107d1565b90506001600160a01b0384161561046d5761046d6001600160a01b038516338360a08901356108f4565b610475610954565b604080516001600160a01b0383168152602080880135908201526060808801359282019290925233917f518f052b717cd6e4cf0abca59109d2531d264ce8e86d81e900110a4eacdee10691015b60405180910390a25050505050565b6104d96107a4565b6104e360006109eb565b565b6104ed6107a4565b600180549082905560408051828152602081018490527f5de302eeb1c80d4fb0c0953b692353f09ddf431411b8eb2034d5e8576956191291015b60405180910390a15050565b60008061054536849003840184610c1b565b905061055560e084013542610a3b565b60e0820152610100812061058a817f000000000000000000000000000000000000000000000000000000000000000030610a52565b949350505050565b608081013560006001600160a01b038216156105b2578260c001356105c4565b6105c460c084013560a0850135610bfa565b90506000600154826105d69190610bfa565b90508034146105f8576040516334f5151d60e01b815260040160405180910390fd5b6000610625857f0000000000000000000000000000000000000000000000000000000000000000856107d1565b90506001600160a01b0384161561064f5761064f6001600160a01b038516338360a08901356108f4565b610657610954565b604080516001600160a01b038316815260208088013590820152818701359181019190915233907f54a6401c7dbf5f93434419131a2b02390428924f99a62619b581ecc916e26147906060016104c2565b6106b06107a4565b600280546001600160a01b038381166001600160a01b031983168117909355604080519190921680825260208201939093527f4ab5be82436d353e61ca18726e984e561f5c1cc7c6d38b29d2553c790434705a9101610527565b6107126107a4565b6001600160a01b03811661074157604051631e4fbdf760e01b8152600060048201526024015b60405180910390fd5b61074a816109eb565b50565b60008061075f36849003840184610c1b565b905061076f60e084013542610a3b565b60e0820152610100812061058a817f000000000000000000000000000000000000000000000000000000000000000030610a52565b6000546001600160a01b031633146104e35760405163118cdaa760e01b8152336004820152602401610738565b6000806107e336869003860186610c1b565b90506107f360e086013542610a3b565b60e0820152610100812060007f0000000000000000000000000000000000000000000000000000000000000000861461084c577f000000000000000000000000000000000000000000000000000000000000000061086e565b7f00000000000000000000000000000000000000000000000000000000000000005b6040516020016108cb9190733d602d80600a3d3981f3363d3d373d3d3d363d7360601b815260609190911b6bffffffffffffffffffffffff191660148201526e5af43d82803e903d91602b57fd5bf360881b602882015260370190565b60405160208183030381529060405290506108e7858383610a85565b93505050505b9392505050565b604080516001600160a01b0385811660248301528416604482015260648082018490528251808303909101815260849091019091526020810180516001600160e01b03166323b872dd60e01b17905261094e908590610b1c565b50505050565b600060015411801561097057506002546001600160a01b031615155b156104e3576002546001546040516000926001600160a01b031691908381818185875af1925050503d80600081146109c4576040519150601f19603f3d011682016040523d82523d6000602084013e6109c9565b606091505b505090508061074a57604051634033e4e360e01b815260040160405180910390fd5b600080546001600160a01b038381166001600160a01b0319831681178455604051919092169283917f8be0079c531659141344cd1fd0a4f28419497f9722a3daafe3b4186f6b6457e09190a35050565b6001600160e01b03821660e082901b175b92915050565b6000604051836040820152846020820152828152600b8101905060ff8153605590206001600160a01b0316949350505050565b600083471015610ab15760405163cf47918160e01b815247600482015260248101859052604401610738565b8151600003610ad357604051631328927760e21b815260040160405180910390fd5b8282516020840186f590503d151981151615610af5576040513d6000823e3d81fd5b6001600160a01b0381166108ed5760405163b06ebf3d60e01b815260040160405180910390fd5b600080602060008451602086016000885af180610b3f576040513d6000823e3d81fd5b50506000513d91508115610b57578060011415610b64565b6001600160a01b0384163b155b1561094e57604051635274afe760e01b81526001600160a01b0385166004820152602401610738565b600060608284031215610b9f57600080fd5b50919050565b60006101008284031215610b9f57600080fd5b600060208284031215610bca57600080fd5b5035919050565b600060208284031215610be357600080fd5b81356001600160a01b03811681146108ed57600080fd5b80820180821115610a4c57634e487b7160e01b600052601160045260246000fd5b6000610100808385031215610c2f57600080fd5b6040519081019067ffffffffffffffff82118183101715610c6057634e487b7160e01b600052604160045260246000fd5b81604052833581526020840135602082015260408401356040820152606084013560608201526080840135608082015260a084013560a082015260c084013560c082015260e084013560e082015280925050509291505056fea2646970667358221220afb8506b349f8f571dd1f4d61dae5faa488506846088b6f7561f0260a5c00ca164736f6c634300081700333360c0527f3d602d80600a3d3981f3363d3d373d3d3d363d730000000000000000000000006101209081526001600160601b03193060601b16610134526e5af43d82803e903d91602b57fd5bf360881b610148526037610100819052610157604052902060e05234801561007257600080fd5b506040516111d63803806111d6833981016040819052610091916100ad565b63ffffffff90911660a0526001600160a01b03166080526100fc565b600080604083850312156100c057600080fd5b825163ffffffff811681146100d457600080fd5b60208401519092506001600160a01b03811681146100f157600080fd5b809150509250929050565b60805160a05160c05160e05161108c61014a600039600081816101c4015261094c015260008181610126015261096d0152600081816102c60152610729015260006102fd015261108c6000f3fe6080604052600436106100c65760003560e01c80633e25605c1161007f578063d66ca7cb11610059578063d66ca7cb14610254578063f22699fd14610274578063f502b81a14610294578063f56cd69c146102b457600080fd5b80633e25605c146101f45780634649088b1461021457806390d3252f1461023457600080fd5b80630af97558146100d257806323305703146100f45780632dd31000146101145780632f429c68146101655780633077240a1461018557806334862b6a146101b257600080fd5b366100cd57005b600080fd5b3480156100de57600080fd5b506100f26100ed366004610ca4565b6102e8565b005b34801561010057600080fd5b506100f261010f366004610ca4565b61043a565b34801561012057600080fd5b506101487f000000000000000000000000000000000000000000000000000000000000000081565b6040516001600160a01b0390911681526020015b60405180910390f35b34801561017157600080fd5b506100f2610180366004610cd2565b610519565b34801561019157600080fd5b506101a56101a0366004610d61565b6105ab565b60405161015c9190610d9e565b3480156101be57600080fd5b506101e67f000000000000000000000000000000000000000000000000000000000000000081565b60405190815260200161015c565b34801561020057600080fd5b506101a561020f366004610d61565b610645565b34801561022057600080fd5b506100f261022f366004610dd1565b6106e7565b34801561024057600080fd5b506100f261024f366004610e1d565b6107bf565b34801561026057600080fd5b506101a561026f366004610d61565b61087f565b34801561028057600080fd5b506101a561028f366004610d61565b610898565b3480156102a057600080fd5b506100f26102af366004610cd2565b6108b5565b3480156102c057600080fd5b506101e67f000000000000000000000000000000000000000000000000000000000000000081565b6040516370a0823160e01b81523360048201527f00000000000000000000000000000000000000000000000000000000000000006001600160a01b0316906370a0823190602401602060405180830381865afa15801561034c573d6000803e3d6000fd5b505050506040513d601f19601f820116820180604052508101906103709190610e41565b600003610390576040516348f5c3ed60e01b815260040160405180910390fd5b8061039a81610938565b828280602001356103aa836109bc565b146103c85760405163abab6bd760e01b815260040160405180910390fd5b6103d760e08501356001610a33565b804210156103f8576040516337bf561360e11b815260040160405180910390fd5b61040760e08601356002610a33565b804210610427576040516337bf561360e11b815260040160405180910390fd5b6104318787610a75565b50505050505050565b8061044481610938565b82828060200135610454836109bc565b146104725760405163abab6bd760e01b815260040160405180910390fd5b61048160e08501356000610a33565b804210156104a2576040516337bf561360e11b815260040160405180910390fd5b6104b160e08601356002610a33565b8042106104d1576040516337bf561360e11b815260040160405180910390fd5b336001600160a01b03604088013516148015906104fb5750336001600160a01b0360608801351614155b15610427576040516348f5c3ed60e01b815260040160405180910390fd5b8061052381610938565b336001600160a01b0360608401351614610550576040516348f5c3ed60e01b815260040160405180910390fd5b6000858152600160205260409020610569848683610ef4565b50847f9a3ca331ae69500efbd2a5ef8f65be62375edbfa3e2492b6d0c572d5bdae959a858560405161059c929190610fb5565b60405180910390a25050505050565b600160205260009081526040902080546105c490610e70565b80601f01602080910402602001604051908101604052809291908181526020018280546105f090610e70565b801561063d5780601f106106125761010080835404028352916020019161063d565b820191906000526020600020905b81548152906001019060200180831161062057829003601f168201915b505050505081565b600081815260208190526040902080546060919061066290610e70565b80601f016020809104026020016040519081016040528092919081815260200182805461068e90610e70565b80156106db5780601f106106b0576101008083540402835291602001916106db565b820191906000526020600020905b8154815290600101906020018083116106be57829003601f168201915b50505050509050919050565b80336001600160a01b0360608301351614610715576040516348f5c3ed60e01b815260040160405180910390fd5b8161071f81610938565b60e083810135901c7f0000000000000000000000000000000000000000000000000000000000000000018042101561076a576040516337bf561360e11b815260040160405180910390fd5b610775863387610ad5565b604080516001600160a01b0388168152602081018790527fc4474c2790e13695f6d2b6f1d8e164290b55370f87a542fd7711abe0a1bf40ac910160405180910390a1505050505050565b80336001600160a01b03604083013516146107ed576040516348f5c3ed60e01b815260040160405180910390fd5b816107f781610938565b61080660e08401356002610a33565b80421015610827576040516337bf561360e11b815260040160405180910390fd5b61083e608085013560408601358660a00135610ad5565b61085060408501358560c00135610b06565b6040517f6e3be9294e58d10b9c8053cfd5e09871b67e442fe394d6b0870d336b9df984a990600090a150505050565b600060208190529081526040902080546105c490610e70565b600081815260016020526040902080546060919061066290610e70565b806108bf81610938565b336001600160a01b03604084013516146108ec576040516348f5c3ed60e01b815260040160405180910390fd5b6000858152602081905260409020610905848683610ef4565b50847f47ec2526c724b1747f35d88efd98e75debc6547e672ef627bbae4e976b2183cd858560405161059c929190610fb5565b600061094382610b7a565b905030610991827f00000000000000000000000000000000000000000000000000000000000000007f0000000000000000000000000000000000000000000000000000000000000000610b90565b6001600160a01b0316146109b857604051635134a42560e11b815260040160405180910390fd5b5050565b60006002826040516020016109d391815260200190565b60408051601f19818403018152908290526109ed91610fe4565b602060405180830381855afa158015610a0a573d6000803e3d6000fd5b5050506040513d601f19601f82011682018060405250810190610a2d9190610e41565b92915050565b60008281836002811115610a4957610a49611000565b610a5490602061102c565b9050610a6c63ffffffff83831c1660e084901c611043565b95945050505050565b610a8c608082013560608301358360a00135610ad5565b610a9e60408201358260c00135610b06565b6040518281527fe346f5c97a360db5188bfa5d3ec5f0583abde420c6ba4d08b6cfe61addc171059060200160405180910390a15050565b6001600160a01b038316610af257610aed8282610b06565b505050565b610aed6001600160a01b0384168383610bc3565b6000826001600160a01b03168260405160006040518083038185875af1925050503d8060008114610b53576040519150601f19603f3d011682016040523d82523d6000602084013e610b58565b606091505b5050905080610aed57604051638a0332d560e01b815260040160405180910390fd5b6000604051610100838237610100902092915050565b6000604051836040820152846020820152828152600b8101905060ff8153605590206001600160a01b0316949350505050565b604080516001600160a01b03841660248201526044808201849052825180830390910181526064909101909152602080820180516001600160e01b031663a9059cbb60e01b1781528251610aed938793909260009283929183919082885af180610c33576040513d6000823e3d81fd5b50506000513d91508115610c4b578060011415610c58565b6001600160a01b0384163b155b15610c8557604051635274afe760e01b81526001600160a01b038516600482015260240160405180910390fd5b50505050565b60006101008284031215610c9e57600080fd5b50919050565b6000806101208385031215610cb857600080fd5b82359150610cc98460208501610c8b565b90509250929050565b6000806000806101408587031215610ce957600080fd5b84359350602085013567ffffffffffffffff80821115610d0857600080fd5b818701915087601f830112610d1c57600080fd5b813581811115610d2b57600080fd5b886020828501011115610d3d57600080fd5b602083019550809450505050610d568660408701610c8b565b905092959194509250565b600060208284031215610d7357600080fd5b5035919050565b60005b83811015610d95578181015183820152602001610d7d565b50506000910152565b6020815260008251806020840152610dbd816040850160208701610d7a565b601f01601f19169190910160400192915050565b60008060006101408486031215610de757600080fd5b83356001600160a01b0381168114610dfe57600080fd5b925060208401359150610e148560408601610c8b565b90509250925092565b60006101008284031215610e3057600080fd5b610e3a8383610c8b565b9392505050565b600060208284031215610e5357600080fd5b5051919050565b634e487b7160e01b600052604160045260246000fd5b600181811c90821680610e8457607f821691505b602082108103610c9e57634e487b7160e01b600052602260045260246000fd5b601f821115610aed576000816000526020600020601f850160051c81016020861015610ecd5750805b601f850160051c820191505b81811015610eec57828155600101610ed9565b505050505050565b67ffffffffffffffff831115610f0c57610f0c610e5a565b610f2083610f1a8354610e70565b83610ea4565b6000601f841160018114610f545760008515610f3c5750838201355b600019600387901b1c1916600186901b178355610fae565b600083815260209020601f19861690835b82811015610f855786850135825560209485019460019092019101610f65565b5086821015610fa25760001960f88860031b161c19848701351681555b505060018560011b0183555b5050505050565b60208152816020820152818360408301376000818301604090810191909152601f909201601f19160101919050565b60008251610ff6818460208701610d7a565b9190910192915050565b634e487b7160e01b600052602160045260246000fd5b634e487b7160e01b600052601160045260246000fd5b8082028115828204841417610a2d57610a2d611016565b80820180821115610a2d57610a2d61101656fea26469706673582212200372918a331d8ad5ee51bfa4ed3c3a4224d39a0d001267540687c87b43675df164736f6c634300081700333360c0527f3d602d80600a3d3981f3363d3d373d3d3d363d730000000000000000000000006101209081526001600160601b03193060601b16610134526e5af43d82803e903d91602b57fd5bf360881b610148526037610100819052610157604052902060e05234801561007257600080fd5b5060405161120c38038061120c833981016040819052610091916100ad565b63ffffffff90911660a0526001600160a01b03166080526100fc565b600080604083850312156100c057600080fd5b825163ffffffff811681146100d457600080fd5b60208401519092506001600160a01b03811681146100f157600080fd5b809150509250929050565b60805160a05160c05160e0516110c261014a600039600081816101c4015261098201526000818161012601526109a30152600081816102c60152610744015260006102fd01526110c26000f3fe6080604052600436106100c65760003560e01c80633e25605c1161007f578063d66ca7cb11610059578063d66ca7cb14610254578063f22699fd14610274578063f502b81a14610294578063f56cd69c146102b457600080fd5b80633e25605c146101f45780634649088b1461021457806390d3252f1461023457600080fd5b80630af97558146100d257806323305703146100f45780632dd31000146101145780632f429c68146101655780633077240a1461018557806334862b6a146101b257600080fd5b366100cd57005b600080fd5b3480156100de57600080fd5b506100f26100ed366004610cda565b6102e8565b005b34801561010057600080fd5b506100f261010f366004610cda565b61043a565b34801561012057600080fd5b506101487f000000000000000000000000000000000000000000000000000000000000000081565b6040516001600160a01b0390911681526020015b60405180910390f35b34801561017157600080fd5b506100f2610180366004610d08565b610519565b34801561019157600080fd5b506101a56101a0366004610d97565b6105c6565b60405161015c9190610dd4565b3480156101be57600080fd5b506101e67f000000000000000000000000000000000000000000000000000000000000000081565b60405190815260200161015c565b34801561020057600080fd5b506101a561020f366004610d97565b610660565b34801561022057600080fd5b506100f261022f366004610e07565b610702565b34801561024057600080fd5b506100f261024f366004610e53565b6107da565b34801561026057600080fd5b506101a561026f366004610d97565b61089a565b34801561028057600080fd5b506101a561028f366004610d97565b6108b3565b3480156102a057600080fd5b506100f26102af366004610d08565b6108d0565b3480156102c057600080fd5b506101e67f000000000000000000000000000000000000000000000000000000000000000081565b6040516370a0823160e01b81523360048201527f00000000000000000000000000000000000000000000000000000000000000006001600160a01b0316906370a0823190602401602060405180830381865afa15801561034c573d6000803e3d6000fd5b505050506040513d601f19601f820116820180604052508101906103709190610e77565b600003610390576040516348f5c3ed60e01b815260040160405180910390fd5b8061039a8161096e565b828280602001356103aa836109f2565b146103c85760405163abab6bd760e01b815260040160405180910390fd5b6103d760e08501356001610a69565b804210156103f8576040516337bf561360e11b815260040160405180910390fd5b61040760e08601356002610a69565b804210610427576040516337bf561360e11b815260040160405180910390fd5b6104318787610aab565b50505050505050565b806104448161096e565b82828060200135610454836109f2565b146104725760405163abab6bd760e01b815260040160405180910390fd5b61048160e08501356000610a69565b804210156104a2576040516337bf561360e11b815260040160405180910390fd5b6104b160e08601356002610a69565b8042106104d1576040516337bf561360e11b815260040160405180910390fd5b336001600160a01b03604088013516148015906104fb5750336001600160a01b0360608801351614155b15610427576040516348f5c3ed60e01b815260040160405180910390fd5b806105238161096e565b336001600160a01b036040840135161480159061054d5750336001600160a01b0360608401351614155b1561056b576040516348f5c3ed60e01b815260040160405180910390fd5b6000858152602081905260409020610584848683610f2a565b50847f9a3ca331ae69500efbd2a5ef8f65be62375edbfa3e2492b6d0c572d5bdae959a85856040516105b7929190610feb565b60405180910390a25050505050565b600060208190529081526040902080546105df90610ea6565b80601f016020809104026020016040519081016040528092919081815260200182805461060b90610ea6565b80156106585780601f1061062d57610100808354040283529160200191610658565b820191906000526020600020905b81548152906001019060200180831161063b57829003601f168201915b505050505081565b600081815260016020526040902080546060919061067d90610ea6565b80601f01602080910402602001604051908101604052809291908181526020018280546106a990610ea6565b80156106f65780601f106106cb576101008083540402835291602001916106f6565b820191906000526020600020905b8154815290600101906020018083116106d957829003601f168201915b50505050509050919050565b80336001600160a01b0360608301351614610730576040516348f5c3ed60e01b815260040160405180910390fd5b8161073a8161096e565b60e083810135901c7f00000000000000000000000000000000000000000000000000000000000000000180421015610785576040516337bf561360e11b815260040160405180910390fd5b610790863387610b0b565b604080516001600160a01b0388168152602081018790527fc4474c2790e13695f6d2b6f1d8e164290b55370f87a542fd7711abe0a1bf40ac910160405180910390a1505050505050565b80336001600160a01b0360608301351614610808576040516348f5c3ed60e01b815260040160405180910390fd5b816108128161096e565b61082160e08401356002610a69565b80421015610842576040516337bf561360e11b815260040160405180910390fd5b610859608085013560608601358660a00135610b0b565b61086b60608501358560c00135610b3c565b6040517f6e3be9294e58d10b9c8053cfd5e09871b67e442fe394d6b0870d336b9df984a990600090a150505050565b600160205260009081526040902080546105df90610ea6565b600081815260208190526040902080546060919061067d90610ea6565b806108da8161096e565b336001600160a01b03604084013516148015906109045750336001600160a01b0360608401351614155b15610922576040516348f5c3ed60e01b815260040160405180910390fd5b600085815260016020526040902061093b848683610f2a565b50847f47ec2526c724b1747f35d88efd98e75debc6547e672ef627bbae4e976b2183cd85856040516105b7929190610feb565b600061097982610bb0565b9050306109c7827f00000000000000000000000000000000000000000000000000000000000000007f0000000000000000000000000000000000000000000000000000000000000000610bc6565b6001600160a01b0316146109ee57604051635134a42560e11b815260040160405180910390fd5b5050565b6000600282604051602001610a0991815260200190565b60408051601f1981840301815290829052610a239161101a565b602060405180830381855afa158015610a40573d6000803e3d6000fd5b5050506040513d601f19601f82011682018060405250810190610a639190610e77565b92915050565b60008281836002811115610a7f57610a7f611036565b610a8a906020611062565b9050610aa263ffffffff83831c1660e084901c611079565b95945050505050565b610ac2608082013560408301358360a00135610b0b565b610ad460608201358260c00135610b3c565b6040518281527fe346f5c97a360db5188bfa5d3ec5f0583abde420c6ba4d08b6cfe61addc171059060200160405180910390a15050565b6001600160a01b038316610b2857610b238282610b3c565b505050565b610b236001600160a01b0384168383610bf9565b6000826001600160a01b03168260405160006040518083038185875af1925050503d8060008114610b89576040519150601f19603f3d011682016040523d82523d6000602084013e610b8e565b606091505b5050905080610b2357604051638a0332d560e01b815260040160405180910390fd5b6000604051610100838237610100902092915050565b6000604051836040820152846020820152828152600b8101905060ff8153605590206001600160a01b0316949350505050565b604080516001600160a01b03841660248201526044808201849052825180830390910181526064909101909152602080820180516001600160e01b031663a9059cbb60e01b1781528251610b23938793909260009283929183919082885af180610c69576040513d6000823e3d81fd5b50506000513d91508115610c81578060011415610c8e565b6001600160a01b0384163b155b15610cbb57604051635274afe760e01b81526001600160a01b038516600482015260240160405180910390fd5b50505050565b60006101008284031215610cd457600080fd5b50919050565b6000806101208385031215610cee57600080fd5b82359150610cff8460208501610cc1565b90509250929050565b6000806000806101408587031215610d1f57600080fd5b84359350602085013567ffffffffffffffff80821115610d3e57600080fd5b818701915087601f830112610d5257600080fd5b813581811115610d6157600080fd5b886020828501011115610d7357600080fd5b602083019550809450505050610d8c8660408701610cc1565b905092959194509250565b600060208284031215610da957600080fd5b5035919050565b60005b83811015610dcb578181015183820152602001610db3565b50506000910152565b6020815260008251806020840152610df3816040850160208701610db0565b601f01601f19169190910160400192915050565b60008060006101408486031215610e1d57600080fd5b83356001600160a01b0381168114610e3457600080fd5b925060208401359150610e4a8560408601610cc1565b90509250925092565b60006101008284031215610e6657600080fd5b610e708383610cc1565b9392505050565b600060208284031215610e8957600080fd5b5051919050565b634e487b7160e01b600052604160045260246000fd5b600181811c90821680610eba57607f821691505b602082108103610cd457634e487b7160e01b600052602260045260246000fd5b601f821115610b23576000816000526020600020601f850160051c81016020861015610f035750805b601f850160051c820191505b81811015610f2257828155600101610f0f565b505050505050565b67ffffffffffffffff831115610f4257610f42610e90565b610f5683610f508354610ea6565b83610eda565b6000601f841160018114610f8a5760008515610f725750838201355b600019600387901b1c1916600186901b178355610fe4565b600083815260209020601f19861690835b82811015610fbb5786850135825560209485019460019092019101610f9b565b5086821015610fd85760001960f88860031b161c19848701351681555b505060018560011b0183555b5050505050565b60208152816020820152818360408301376000818301604090810191909152601f909201601f19160101919050565b6000825161102c818460208701610db0565b9190910192915050565b634e487b7160e01b600052602160045260246000fd5b634e487b7160e01b600052601160045260246000fd5b8082028115828204841417610a6357610a6361104c565b80820180821115610a6357610a6361104c56fea2646970667358221220dfa84b26e1848d7c139141de3c5b628327e339ccb6f69ed8e257225c70e7f9d664736f6c63430008170033",
  "linkReferences": {},
  "deployedLinkReferences": {}
}